{
    "network":"eth",
    "txReceipt":{
       "transactionHash":"0x37a622f2b2df76e5ba13facf886e02b0b9b1f151c76cee657ba9d69209defeea",
       "transactionIndex":"0xc1",
       "blockHash":"0xba221cd8245ab546331904dd4e5938766908db1765f474c786a9356fe45f84ac",
       "blockNumber":"0x128c1ae",
       "from":"0xbd62c583ef67cf536fc5bcec7b6197bfa1036c1a",
       "to":"0x3fc91a3afd70395cd496c647d5a6cc9d4b2b7fad",
       "cumulativeGasUsed":"0xdba999",
       "gasUsed":"0x21025",
       "effectiveGasPrice":"0x7bf99f6a5",
       "status":"0x1",
       "logs":[
          {
             "address":"0xc02aaa39b223fe8d0a0e5c4f27ead9083c756cc2",
             "blockHash":"0xba221cd8245ab546331904dd4e5938766908db1765f474c786a9356fe45f84ac",
             "blockNumber":"0x128c1ae",
             "data":"0x000000000000000000000000000000000000000000000000002386f26fc10000",
             "logIndex":"0x18d",
             "removed":false,
             "topics":[
                "0xe1fffcc4923d04b559f4d29a8bfc6cda04eb5b0d3c460751c2402c5c5cc9109c",
                "0x0000000000000000000000003fc91a3afd70395cd496c647d5a6cc9d4b2b7fad"
             ],
             "transactionHash":"0x37a622f2b2df76e5ba13facf886e02b0b9b1f151c76cee657ba9d69209defeea",
             "transactionIndex":"0xc1"
          },
          {
             "address":"0x873ec47bde28a13f0f92ef2e379b7550171506f8",
             "blockHash":"0xba221cd8245ab546331904dd4e5938766908db1765f474c786a9356fe45f84ac",
             "blockNumber":"0x128c1ae",
             "data":"0x00000000000000000000000000000000000000000000002d250759f5e3c1cf14",
             "logIndex":"0x18e",
             "removed":false,
             "topics":[
                "0xddf252ad1be2c89b69c2b068fc378daa952ba7f163c4a11628f55a4df523b3ef",
                "0x000000000000000000000000db9580b93e4c6f126f74db3a59166a39dda532cd",
                "0x000000000000000000000000bd62c583ef67cf536fc5bcec7b6197bfa1036c1a"
             ],
             "transactionHash":"0x37a622f2b2df76e5ba13facf886e02b0b9b1f151c76cee657ba9d69209defeea",
             "transactionIndex":"0xc1"
          },
          {
             "address":"0xc02aaa39b223fe8d0a0e5c4f27ead9083c756cc2",
             "blockHash":"0xba221cd8245ab546331904dd4e5938766908db1765f474c786a9356fe45f84ac",
             "blockNumber":"0x128c1ae",
             "data":"0x000000000000000000000000000000000000000000000000002386f26fc10000",
             "logIndex":"0x18f",
             "removed":false,
             "topics":[
                "0xddf252ad1be2c89b69c2b068fc378daa952ba7f163c4a11628f55a4df523b3ef",
                "0x0000000000000000000000003fc91a3afd70395cd496c647d5a6cc9d4b2b7fad",
                "0x000000000000000000000000db9580b93e4c6f126f74db3a59166a39dda532cd"
             ],
             "transactionHash":"0x37a622f2b2df76e5ba13facf886e02b0b9b1f151c76cee657ba9d69209defeea",
             "transactionIndex":"0xc1"
          },
          {
             "address":"0xdb9580b93e4c6f126f74db3a59166a39dda532cd",
             "blockHash":"0xba221cd8245ab546331904dd4e5938766908db1765f474c786a9356fe45f84ac",
             "blockNumber":"0x128c1ae",
             "data":"0xffffffffffffffffffffffffffffffffffffffffffffffd2daf8a60a1c3e30ec000000000000000000000000000000000000000000000000002386f26fc10000000000000000000000000000000000000000000000e3176338f91b144111b93c0000000000000000000000000000000000000000000018b93ca54d5d30c1f5b8fffffffffffffffffffffffffffffffffffffffffffffffffffffffffffe4566",
             "logIndex":"0x190",
             "removed":false,
             "topics":[
                "0xc42079f94a6350d7e6235f29174924f928cc2ac818eb64fed8004e115fbcca67",
                "0x0000000000000000000000003fc91a3afd70395cd496c647d5a6cc9d4b2b7fad",
                "0x000000000000000000000000bd62c583ef67cf536fc5bcec7b6197bfa1036c1a"
             ],
             "transactionHash":"0x37a622f2b2df76e5ba13facf886e02b0b9b1f151c76cee657ba9d69209defeea",
             "transactionIndex":"0xc1"
          }
       ],
       "type":"0x2",
       "logsBloom":"0x00400000000000000000000000000000000000000000000000000000040000000000000000000000000000000000000002000000080020000000000000000000000000880800000800000008000000200000000000000000000000008020000000000000000000000000000002000000000000000000000000000012000800000000000000000000000000000000000000000001000000000000000000000080000000000800000000000000000000000000000000000000000000000000000000000002020000000000000000000000000000000000000000000000000000400000200000000000000000000000000200001000000000400000000000000000"
    },
    "decodedInput":{
       "functionName":"execute",
       "parameters":[
          {
             "parameter":{
                "name":"commands",
                "type":"bytes",
                "order":1,
                "internalType":"bytes",
                "indexed":false
             },
             "dataIndexStart":96,
             "result":"CwA="
          },
          {
             "parameter":{
                "name":"inputs",
                "type":"bytes[]",
                "order":2,
                "internalType":"bytes[]",
                "indexed":false
             },
             "dataIndexStart":160,
             "result":[
                "AAAAAAAAAAAAAAAAAAAAAAAAAAAAAAAAAAAAAAAAAAIAAAAAAAAAAAAAAAAAAAAAAAAAAAAAAAAAI4byb8EAAA==",
                "AAAAAAAAAAAAAAAAAAAAAAAAAAAAAAAAAAAAAAAAAAEAAAAAAAAAAAAAAAAAAAAAAAAAAAAAAAAAI4byb8EAAAAAAAAAAAAAAAAAAAAAAAAAAAAAAAAAK9uX8bwo9mY2AAAAAAAAAAAAAAAAAAAAAAAAAAAAAAAAAAAAAAAAAKAAAAAAAAAAAAAAAAAAAAAAAAAAAAAAAAAAAAAAAAAAAAAAAAAAAAAAAAAAAAAAAAAAAAAAAAAAAAAAAAAAAAArwCqqObIj/o0KDlxPJ+rZCDx1bMIAAGSHPsR73iihPw+S7y43m3VQFxUG+AAAAAAAAAAAAAAAAAAAAAAAAAAAAA=="
             ]
          },
          {
             "parameter":{
                "name":"deadline",
                "type":"uint256",
                "order":3,
                "internalType":"uint256",
                "indexed":false
             },
             "dataIndexStart":0,
             "result":1710602759
          }
       ]
    },
    "eventLogs":[
       {
          "decodedName":"Deposit",
          "logIndex":397,
          "decodedSignature":"Deposit(address,uint256)",
          "params":[
             {
                "name":"dst",
                "type":"address",
                "value":"0x3fC91A3afd70395Cd496C647d5a6CC9D4B2b7FAD"
             },
             {
                "name":"wad",
                "type":"uint256",
                "value":10000000000000000
             }
          ],
          "raw":{
             "eventSignature":"0xe1fffcc4923d04b559f4d29a8bfc6cda04eb5b0d3c460751c2402c5c5cc9109c",
             "topics":[
                "0xe1fffcc4923d04b559f4d29a8bfc6cda04eb5b0d3c460751c2402c5c5cc9109c",
                "0x0000000000000000000000003fc91a3afd70395cd496c647d5a6cc9d4b2b7fad"
             ],
             "data":"0x000000000000000000000000000000000000000000000000002386f26fc10000"
          },
          "address":"0xC02aaA39b223FE8D0A0e5C4F27eAD9083C756Cc2"
       },
       {
          "decodedName":"Transfer",
          "logIndex":398,
          "decodedSignature":"Transfer(address,address,uint256)",
          "params":[
             {
                "name":"from",
                "type":"address",
                "value":"0xDb9580b93E4c6F126F74Db3A59166a39DDA532CD"
             },
             {
                "name":"to",
                "type":"address",
                "value":"0xBd62c583EF67cF536FC5BCEC7b6197bFA1036C1a"
             },
             {
                "name":"value",
                "type":"uint256",
                "value":832771683533793120020
             }
          ],
          "raw":{
             "eventSignature":"0xddf252ad1be2c89b69c2b068fc378daa952ba7f163c4a11628f55a4df523b3ef",
             "topics":[
                "0xddf252ad1be2c89b69c2b068fc378daa952ba7f163c4a11628f55a4df523b3ef",
                "0x000000000000000000000000db9580b93e4c6f126f74db3a59166a39dda532cd",
                "0x000000000000000000000000bd62c583ef67cf536fc5bcec7b6197bfa1036c1a"
             ],
             "data":"0x00000000000000000000000000000000000000000000002d250759f5e3c1cf14"
          },
          "address":"0x873eC47BDe28A13F0f92EF2e379b7550171506F8"
       },
       {
          "decodedName":"Transfer",
          "logIndex":399,
          "decodedSignature":"Transfer(address,address,uint256)",
          "params":[
             {
                "name":"src",
                "type":"address",
                "value":"0x3fC91A3afd70395Cd496C647d5a6CC9D4B2b7FAD"
             },
             {
                "name":"dst",
                "type":"address",
                "value":"0xDb9580b93E4c6F126F74Db3A59166a39DDA532CD"
             },
             {
                "name":"wad",
                "type":"uint256",
                "value":10000000000000000
             }
          ],
          "raw":{
             "eventSignature":"0xddf252ad1be2c89b69c2b068fc378daa952ba7f163c4a11628f55a4df523b3ef",
             "topics":[
                "0xddf252ad1be2c89b69c2b068fc378daa952ba7f163c4a11628f55a4df523b3ef",
                "0x0000000000000000000000003fc91a3afd70395cd496c647d5a6cc9d4b2b7fad",
                "0x000000000000000000000000db9580b93e4c6f126f74db3a59166a39dda532cd"
             ],
             "data":"0x000000000000000000000000000000000000000000000000002386f26fc10000"
          },
          "address":"0xC02aaA39b223FE8D0A0e5C4F27eAD9083C756Cc2"
       },
       {
          "decodedName":"Swap",
          "logIndex":400,
          "decodedSignature":"Swap(address,address,int256,int256,uint160,uint128,int24)",
          "params":[
             {
                "name":"sender",
                "type":"address",
                "value":"0x3fC91A3afd70395Cd496C647d5a6CC9D4B2b7FAD"
             },
             {
                "name":"recipient",
                "type":"address",
                "value":"0xBd62c583EF67cF536FC5BCEC7b6197bFA1036C1a"
             },
             {
                "name":"amount0",
                "type":"int256",
                "value":-832771683533793120020
             },
             {
                "name":"amount1",
                "type":"int256",
                "value":10000000000000000
             },
             {
                "name":"sqrtPriceX96",
                "type":"uint160",
                "value":274536605814632430873721148
             },
             {
                "name":"liquidity",
                "type":"uint128",
                "value":116753813226583830427064
             },
             {
                "name":"tick",
                "type":"int24",
                "value":-113306
             }
          ],
          "raw":{
             "eventSignature":"0xc42079f94a6350d7e6235f29174924f928cc2ac818eb64fed8004e115fbcca67",
             "topics":[
                "0xc42079f94a6350d7e6235f29174924f928cc2ac818eb64fed8004e115fbcca67",
                "0x0000000000000000000000003fc91a3afd70395cd496c647d5a6cc9d4b2b7fad",
                "0x000000000000000000000000bd62c583ef67cf536fc5bcec7b6197bfa1036c1a"
             ],
             "data":"0xffffffffffffffffffffffffffffffffffffffffffffffd2daf8a60a1c3e30ec000000000000000000000000000000000000000000000000002386f26fc10000000000000000000000000000000000000000000000e3176338f91b144111b93c0000000000000000000000000000000000000000000018b93ca54d5d30c1f5b8fffffffffffffffffffffffffffffffffffffffffffffffffffffffffffe4566"
          },
          "address":"0xDb9580b93E4c6F126F74Db3A59166a39DDA532CD"
       }
    ],
    "internalTxs":[
       {
          "from":"0x3fC91A3afd70395Cd496C647d5a6CC9D4B2b7FAD",
          "to":"0xC02aaA39b223FE8D0A0e5C4F27eAD9083C756Cc2",
          "value":10000000000000000,
          "type":"call"
       }
    ],
    "rawTx":{
       "hash":"0x37a622f2b2df76e5ba13facf886e02b0b9b1f151c76cee657ba9d69209defeea",
       "transactionIndex":"0xc1",
       "type":"0x2",
       "blockHash":"0xba221cd8245ab546331904dd4e5938766908db1765f474c786a9356fe45f84ac",
       "blockNumber":"0x128c1ae",
       "from":"0xBd62c583EF67cF536FC5BCEC7b6197bFA1036C1a",
       "to":"0x3fC91A3afd70395Cd496C647d5a6CC9D4B2b7FAD",
       "gas":"0x2d2fe",
       "gasPrice":"0x7bf99f6a5",
       "maxFeePerGas":"0x80833361e",
       "maxPriorityFeePerGas":"0xe989c3",
       "value":"0x2386f26fc10000",
       "input":"0x3593564c000000000000000000000000000000000000000000000000000000000000006000000000000000000000000000000000000000000000000000000000000000a00000000000000000000000000000000000000000000000000000000065f5ba0700000000000000000000000000000000000000000000000000000000000000020b000000000000000000000000000000000000000000000000000000000000000000000000000000000000000000000000000000000000000000000000000002000000000000000000000000000000000000000000000000000000000000004000000000000000000000000000000000000000000000000000000000000000a000000000000000000000000000000000000000000000000000000000000000400000000000000000000000000000000000000000000000000000000000000002000000000000000000000000000000000000000000000000002386f26fc1000000000000000000000000000000000000000000000000000000000000000001000000000000000000000000000000000000000000000000000000000000000001000000000000000000000000000000000000000000000000002386f26fc1000000000000000000000000000000000000000000000000002bdb97f1bc28f6663600000000000000000000000000000000000000000000000000000000000000a00000000000000000000000000000000000000000000000000000000000000000000000000000000000000000000000000000000000000000000000000000002bc02aaa39b223fe8d0a0e5c4f27ead9083c756cc2000064873ec47bde28a13f0f92ef2e379b7550171506f8000000000000000000000000000000000000000000",
       "nonce":"0x2",
       "r":"0xc9d3b3dfb95fd34a339d6383285c48901192209581bc89045e34cb07a094c808",
       "s":"0x255c9895f1ce9f6d42f65c9747e246093e90ae45a69d7f8cf75ea75ea68b37a3",
       "v":"0x0",
       "accessList":[
          
       ],
       "chainId":"0x1",
       "timestamp":1710601607
    },
    "rawTraces":{
       "from":"0xbd62c583ef67cf536fc5bcec7b6197bfa1036c1a",
       "gas":"0x2d2fe",
       "gasUsed":"0x21025",
       "to":"0x3fc91a3afd70395cd496c647d5a6cc9d4b2b7fad",
       "input":"0x3593564c000000000000000000000000000000000000000000000000000000000000006000000000000000000000000000000000000000000000000000000000000000a00000000000000000000000000000000000000000000000000000000065f5ba0700000000000000000000000000000000000000000000000000000000000000020b000000000000000000000000000000000000000000000000000000000000000000000000000000000000000000000000000000000000000000000000000002000000000000000000000000000000000000000000000000000000000000004000000000000000000000000000000000000000000000000000000000000000a000000000000000000000000000000000000000000000000000000000000000400000000000000000000000000000000000000000000000000000000000000002000000000000000000000000000000000000000000000000002386f26fc1000000000000000000000000000000000000000000000000000000000000000001000000000000000000000000000000000000000000000000000000000000000001000000000000000000000000000000000000000000000000002386f26fc1000000000000000000000000000000000000000000000000002bdb97f1bc28f6663600000000000000000000000000000000000000000000000000000000000000a00000000000000000000000000000000000000000000000000000000000000000000000000000000000000000000000000000000000000000000000000000002bc02aaa39b223fe8d0a0e5c4f27ead9083c756cc2000064873ec47bde28a13f0f92ef2e379b7550171506f8000000000000000000000000000000000000000000",
       "calls":[
          {
             "from":"0x3fc91a3afd70395cd496c647d5a6cc9d4b2b7fad",
             "gas":"0x22c14",
             "gasUsed":"0x5da6",
             "to":"0xc02aaa39b223fe8d0a0e5c4f27ead9083c756cc2",
             "input":"0xd0e30db0",
             "value":"0x2386f26fc10000",
             "type":"CALL"
          },
          {
             "from":"0x3fc91a3afd70395cd496c647d5a6cc9d4b2b7fad",
             "gas":"0x1bb24",
             "gasUsed":"0x154fd",
             "to":"0xdb9580b93e4c6f126f74db3a59166a39dda532cd",
             "input":"0x128acb08000000000000000000000000bd62c583ef67cf536fc5bcec7b6197bfa1036c1a0000000000000000000000000000000000000000000000000000000000000000000000000000000000000000000000000000000000000000002386f26fc10000000000000000000000000000fffd8963efd1fc6a506488495d951d5263988d2500000000000000000000000000000000000000000000000000000000000000a000000000000000000000000000000000000000000000000000000000000000a000000000000000000000000000000000000000000000000000000000000000400000000000000000000000003fc91a3afd70395cd496c647d5a6cc9d4b2b7fad000000000000000000000000000000000000000000000000000000000000002bc02aaa39b223fe8d0a0e5c4f27ead9083c756cc2000064873ec47bde28a13f0f92ef2e379b7550171506f8000000000000000000000000000000000000000000",
             "output":"0xffffffffffffffffffffffffffffffffffffffffffffffd2daf8a60a1c3e30ec000000000000000000000000000000000000000000000000002386f26fc10000",
             "calls":[
                {
                   "from":"0xdb9580b93e4c6f126f74db3a59166a39dda532cd",
                   "gas":"0x12e84",
                   "gasUsed":"0x889e",
                   "to":"0x873ec47bde28a13f0f92ef2e379b7550171506f8",
                   "input":"0xa9059cbb000000000000000000000000bd62c583ef67cf536fc5bcec7b6197bfa1036c1a00000000000000000000000000000000000000000000002d250759f5e3c1cf14",
                   "output":"0x0000000000000000000000000000000000000000000000000000000000000001",
                   "value":"0x0",
                   "type":"CALL"
                },
                {
                   "from":"0xdb9580b93e4c6f126f74db3a59166a39dda532cd",
                   "gas":"0xa4a3",
                   "gasUsed":"0x9e6",
                   "to":"0xc02aaa39b223fe8d0a0e5c4f27ead9083c756cc2",
                   "input":"0x70a08231000000000000000000000000db9580b93e4c6f126f74db3a59166a39dda532cd",
                   "output":"0x000000000000000000000000000000000000000000000015b44c5be215ea4608",
                   "type":"STATICCALL"
                },
                {
                   "from":"0xdb9580b93e4c6f126f74db3a59166a39dda532cd",
                   "gas":"0x97d5",
                   "gasUsed":"0x2110",
                   "to":"0x3fc91a3afd70395cd496c647d5a6cc9d4b2b7fad",
                   "input":"0xfa461e33ffffffffffffffffffffffffffffffffffffffffffffffd2daf8a60a1c3e30ec000000000000000000000000000000000000000000000000002386f26fc10000000000000000000000000000000000000000000000000000000000000000006000000000000000000000000000000000000000000000000000000000000000a000000000000000000000000000000000000000000000000000000000000000400000000000000000000000003fc91a3afd70395cd496c647d5a6cc9d4b2b7fad000000000000000000000000000000000000000000000000000000000000002bc02aaa39b223fe8d0a0e5c4f27ead9083c756cc2000064873ec47bde28a13f0f92ef2e379b7550171506f8000000000000000000000000000000000000000000",
                   "calls":[
                      {
                         "from":"0x3fc91a3afd70395cd496c647d5a6cc9d4b2b7fad",
                         "gas":"0x8c88",
                         "gasUsed":"0x17ae",
                         "to":"0xc02aaa39b223fe8d0a0e5c4f27ead9083c756cc2",
                         "input":"0xa9059cbb000000000000000000000000db9580b93e4c6f126f74db3a59166a39dda532cd000000000000000000000000000000000000000000000000002386f26fc10000",
                         "output":"0x0000000000000000000000000000000000000000000000000000000000000001",
                         "value":"0x0",
                         "type":"CALL"
                      }
                   ],
                   "value":"0x0",
                   "type":"CALL"
                },
                {
                   "from":"0xdb9580b93e4c6f126f74db3a59166a39dda532cd",
                   "gas":"0x74d1",
                   "gasUsed":"0x216",
                   "to":"0xc02aaa39b223fe8d0a0e5c4f27ead9083c756cc2",
                   "input":"0x70a08231000000000000000000000000db9580b93e4c6f126f74db3a59166a39dda532cd",
                   "output":"0x000000000000000000000000000000000000000000000015b46fe2d485ab4608",
                   "type":"STATICCALL"
                }
             ],
             "value":"0x0",
             "type":"CALL"
          }
       ],
       "value":"0x2386f26fc10000",
       "type":"CALL"
    },
    "networkEnum":0,
    "_rawDataOrigin":"geth",
    "_createdAt":"2024-03-16T15:07:41.4658537+00:00",
    "_fromBackendNode":{
       "rawTx":"https://little-responsive-choice.quiknode.pro/3d589c2d23fc3c41b3d014bb469f6a4ae05ea8f0/",
       "txReceipt":"https://ethereum-mainnet.s.chainbase.online/v1/2ND2mt9rhaCJVzuYRJVq9qcsZgl",
       "rawTraces":"https://little-responsive-choice.quiknode.pro/3d589c2d23fc3c41b3d014bb469f6a4ae05ea8f0/"
    }
 }